:400000000040002011000000350300003503000080B500AF00F0C2F980B500AF2D4B12221A6000F0E3FC2C4B181C00F059FF012000F0ECFC302000F04FFB284B284A1A60A2
:40004000284B8022D2051A60274B274A126802210A431A60254B264A1A60264B00221A60254B254A126808218A431A60FA23DB00181C00F07DFB214B181C00F05BFC204BBD
:40008000AC2292011A601F4B1F4A1A601F4BD02252021A601B4B1E4A1A601E4B822212061A601D4B8022D2021A601C4B40221A601B4B41221A601B4B0820191C00F0A2FBD9
:4000C000082000F019FC074B8022D2051A60BD4680BDC04630001040001BB70004010B40060000800C020B4078002E407C002E402D3E000064F02E406CF02E40DC0500001F
:40010000000301400000014040FF00800403014041FF008008010B4000010B4018010140040101405D0B000080B582B000AF72B63C4B00221A60FB1D00221A7023E0FB1D8B
:400140001A78131C5B009B185B00374A9B183B603B681A78597809020A43997809040A43DB781B061343191C3B681A795B791B0213439BB2081C191C00F094F9FB1D1A7874
:40018000FB1D01321A70FB1D1B78012BD7D9274BEE2212061A60264B992212041A60254B992212041A60244B992212041A60234B992212041A60224A214B1B78DBB20221CA
:4001C0000B43DBB213701F4A1E4B1B78DBB23C218B43DBB214210B43DBB21370184A184B1B78DBB216210B43DBB21370164BD82212041A60154B20221A60154BC422920209
:400200001A60144B20221A60134B20221A60134B20221A60FFF700FF00F054F9BD4602B080BDC0466CF02E4038520000000002400001024000500F4010500F4030500F40D5
:4002400000700F4001700F4008000440000104400801044018010440000304401803044010B5064C2378002B07D1054B002B02D0044800E000BF0123237010BD8801002004
:40028000000000000852000008B5084B002B03D00748084900E000BF07480368002B00D108BD064B002BFBD09847F9E700000000085200008C010020C80000200000000027
:4002C000B0B500AF62B600F057F900F0BBFC00F0C9FD134B181C00F0E5F9002000F0D0FD031C181C00F0A4FF021C0E4B1A600D4B1B68181C00F0E4FF041C0D1C0A4A0B4B4C
:40030000101C191C221C2B1C01F00AFD064B181C00F0C8F9064B181C00F0C4F9DDE7C04610520000DC010020E0010020205200002852000080B500AF01F034F8031C1B68BE
:400340000C2B00D1FEE7FEE780B584B000AF7860104B1A687B68D3181A1C0F4BD21A80235B019A4209DC0B4B1B68FB60094B1A687B68D218074B1A6007E001F013F8031C2F
:400380000C221A6001235B42FB60FB68181CBD4604B080BDCC000020F001002080B586B000AF224B7B61224B3B61204B7B6135E03B691B68FB603B695B68BB603B699B687E
:4003C0003B6000237B600CE0FB681A68BB681A60BB680433BB60FB680433FB607B6804337B607A683B689A42EED13B69DB683B6000237B6008E0BB6800221A60BB680433F6
:40040000BB607B6804337B607A683B689A42F2D13B6910333B617B69013B7B617B69002BC6D100F0C5FFFFF74BFFFEE7010000007454000080B582B000AF154B144A126873
:4004400001218A431A6000237B600FE07B68032B04D8104B7A689200D35800E00E4B0F4A796889008B507B6801337B607B682F2BECD9FFF759FE0A4B00221A60044B044A99
:40048000126801210A431A60BD4602B080BDC04600001040000000003503000000000020C000002080B582B000AF786039607A683B68101C00211A1C00F0A9FFBD4602B07D
:4004C00080BDC04680B500AF0A4B03221A600A4B03221A60094B802212061A60084B20221A60084B00221A60012000F00DF8BD4680BDC046300030403000314000003A4050
:4005000000033A40000E3F4080B584B000AF021CFB1D1A700B4B1B68FB60FB1D1B78002B05D0FB68802212061343FB6003E0FB685B005B08FB60034BFA681A60BD4604B0EC
:4005400080BDC04680033A4080B500AF00F030F8BD4680BD80B500AF064B064A1268802109060A431A6000F019F800F01BF8BD4680BDC0460000244080B500AF064B1B7813
:40058000002B04D1FFF7E0FF034B01221A70FFF7E1FFBD4680BDC046A401002080B500AFBD4680BD80B500AF00F062F8BD4680BD80B500AF1B4B1C4A1A601C4B00221A60CB
:4005C0001B4B01221A601B4B1B4A1A601B4B07221A601B4B00221A601A4B01221A601A4B154A1A60194B00221A60194B04221A60184B00221A60184B00221A60174B0022E2
:400600001A60174B00221A60164B00221A60164B00221A60144B1B689AB2144B1A80BD4680BDC046000024400B0000024000244048002440000324400700008004032440C1
:400640001003244044002440000224400402244050002440880E2440C80E2440480F2440080F2440C80F2440880F2440A601002080B500AF074B074A126807490A40902124
:4006800009040A431A60054B054A12881A60BD4680BDC04600010240FFFF0FFF880F2440A601002080B584B000AF78600023FB6009E07A68FB68D3181B78181C00F020FC02
:4006C000FB680133FB607A68FB68D3181B78002BEFD1BD4604B080BD90B58BB000AF78602723FC1800F005FC031C2370184B1A680C23FB181A60174B1A680C23FB185A60DD
:400700007B68033B144AD35C1A1C0C23FB189A60124B1A680C23FB18DA601C23FB18104A1A600C23FA181C23FB185A600D4B1C22BA181A600C4B0D4A1A600A4B1B6827239F
:40074000FB181B78181C00F0D8FBBD460BB090BD08010B4000010B404452000030001040B6EA000008001040040010401700008080B584B000AF78600023FB60154B154A0B
:40078000126801210A431A60134B144A1A60144B134A1268802109020A431A607B68002B12D01023FB600CE0012000F0C3F800F019F8031E02D00023FB6005E07B68013B4B
:4007C0007B607B68002BEFD1FB68181CBD4604B080BDC04660F02E4078002E400220000010002E4080B582B000AF054B1B68012213407B607B68181CBD4602B080BDC04632
:400800000C002E4080B584B000AF021C3960FB1D1A7080239B05FB60FB1D1B781F2B02D9002000F07DF8FB1D1B7810339B00FA68D3181B68BB60FB1D1B7810339B00FA687B
:40084000D3183A681A60BB68181CBD4604B080BD90B587B000AF021CFB1D1A70BB1D0A1C1A70BB1D1B78032B02D9002000F058F8FB1D1B781F2B02D9002000F051F8FB1D9E
:400880001B7803221340DB0006337B611323FC1800F02FFB031C2370FB1D1B789B08DBB29B00144A944663441B68FB607B6903229A40131CDA43FB681340FB60BB1D1A784A
:4008C0007B699A40131CFA681343FB60FB1D1B789B08DBB29B00074A94466344FA681A601323FB181B78181C00F007FBBD4607B090BDC04600E400E080B582B000AF021CCD
:40090000FB1D1A70054BFA1D12781F210A40012191400A1C1A60BD4602B080BD00E100E080B582B000AF021CFB1D1A7001BEBD4602B080BD80B582B000AF021CBB1D1A8027
:40094000BB1D1B88044A12785343181C00F0C8FABD4602B080BDC046D800002080B500AF0E4B0E4A126801218A431A600B4B0B4A126802218A431A60094B094A126830213F
:400980008A4310210A431A60054B054A126807218A4301210A431A60BD4680BD00F02E4000FF2E4080B500AF0E4B0E4A126802218A431A600C4B0C4A126807218A430221B8
:4009C0000A431A60084B084A126830218A4320210A431A60034B034A126801210A431A60BD4680BD00F02E4000FF2E4080B500AFFFF7B4FF044B044A1268802109060A4341
:400A00001A60BD4680BDC04600F02E4080B584B000AF78600C4B1B6801221340FB607B68002B02D0012B03D005E0FFF797FF06E0FFF7B8FF03E00020FFF772FFC046FB6847
:400A4000181CBD4604B080BD00F02E4090B583B000AFFC1D00F04DFA031C2370074B074A1268C02109020A431A60FB1D1B78181C00F043FABD4603B090BDC04600010B4096
:400A800080B500AF054B1A68C0231B02134001D0012300E00023181CBD4680BD00010B4090B583B000AFFC1D00F023FA031C23700C4B0C4A12680C490A408021C9010A43F8
:400AC0001A60084B074A126807490A40802109020A431A60FB1D1B78181C00F00EFABD4603B090BD00010B40FF3FFFFF90B585B000AF78600B23FC1800F0FBF9031C237016
:400B0000FFF7BEFF031E04D00123FB60FFF7C8FF01E00023FB607B680D4A13407B600D4B0C4A12680C4911407A680A431A60094B1B68FB68012B01D1FFF788FF0B23FB189D
:400B40001B78181C00F0D9F9BD4605B090BDC0460404040010020B40FBFBFBFF80B500AF334B1B68042213401FD0324B1B680422134017D0304B1B6804221340DA432D4BCF
:400B80001B681A402B4B1A602B4B1B68042293431A1C294B1A60294B1B68002B02D0274B1B6898470420FFF7A1FF214B1A688023DB00134022D01F4B1A688023DB0013405F
:400BC00017D01D4B1A688023DB001340DA43194B1B681A40174B1A60174B1B68184A1A40154B1A60154B5B68002B02D0134B5B6898478023DB00181CFFF778FF0C4B1A6886
:400C00008023DB02134011D00A4B1A688023DB02134006D0094B9B68002B02D0074B9B6898478023DB02181CFFF760FFBD4680BD10020B40E8000020B0010020B4010020A4
:400C4000FFFBFFFF80B500AF064B1B78002B04D100F00AF8034B01221A7000F0E7F8BD4680BDC046D001002080B584B000AF0F200321FFF7EDFD534B0F20191CFFF7C2FDBF
:400C8000514B01221A60514B1B68002B01DA504900E05049504B504A12680A431A604F4B4F4A1A604F4B504A1A60504B00221A604F4B504A1A60504B4E4A1A604F4B4F4A2E
:400CC0001268802149020A431A604D4B00221A604C4B00221A604C4B01221A604B4B1B687B607B684A4A13407B607B688022920513437B607B68012293437B60434B7A681F
:400D00001A600023FB6057E00022DC239B0113407B60FB689B003F4A944663447A681A6000220123134009D0354B354A1268F96801208840011C89B20A431A60002202239A
:400D4000134009D02F4B2F4A1268F96801208840011C89B20A431A60002280239B00134003D08023DB00BB6002E080235B01BB60002280235B00134005D1274BFA685200E7
:400D80000021D15204E0244BFA6852000021D152BB68224A5343224A94466344181C214900F054F9031C9BB219B21F4BFA689200D150FB680133FB60FB68002BA4D0BD460A
:400DC00004B080BDC50E000020003A4080033A40700210537002005300003A4004003A408D00008018003A400000FF071C003A4010003A400400040014003A4000033A402E
:400E000028023A4038023A4018023A4030003A40FFFFFFDF80003A40E801002010270000E40C0000C8190000E401002080B500AF0A4B1B68002B0EDBC046094B1B68002B58
:400E4000FBDB064B054A1268802109060A431A600A20FFF76FFDBD4680BDC04600003A4008023A4080B500AF044B044A1268802149020A431A60BD4680BDC04604003A40C9
:400E800080B584B000AF78607B68002B02D00020FFF746FD7B68002B09D17B689B00084A944663441B681B041B0CFB6001E00023FB60FB689BB21BB2181CBD4604B080BDA8
:400EC00080013A4080B582B000AF044B1B687B60024B7A681A60BD4602B080BD10023A400230800803D00138FDD1C046C046C0467047EFF3108072B6704780F3108870479D
:400F000080B582B000AF7860C046064B1B681F221340082BF9D0044B7A681A60BD4602B080BDC0460802244040022440002243088B4274D303098B425FD3030A8B4244D325
:400F4000030B8B4228D3030C8B420DD3FF22090212BA030C8B4202D31212090265D0030B8B4219D300E0090AC30B8B4201D3CB03C01A5241830B8B4201D38B03C01A524144
:400F8000430B8B4201D34B03C01A5241030B8B4201D30B03C01A5241C30A8B4201D3CB02C01A5241830A8B4201D38B02C01A5241430A8B4201D34B02C01A5241030A8B420B
:400FC00001D30B02C01A5241CDD2C3098B4201D3CB01C01A524183098B4201D38B01C01A524143098B4201D34B01C01A524103098B4201D30B01C01A5241C3088B4201D300
:40100000CB00C01A524183088B4201D38B00C01A524143088B4201D34B00C01A5241411A00D20146524110467047FFE701B5002000F0FCF802BDC0460029F7D003B5FFF799
:4010400075FF0EBC4243891A1847C04603460B437FD4002243088B4274D303098B425FD3030A8B4244D3030B8B4228D3030C8B420DD3FF22090212BA030C8B4202D31212DF
:40108000090265D0030B8B4219D300E0090AC30B8B4201D3CB03C01A5241830B8B4201D38B03C01A5241430B8B4201D34B03C01A5241030B8B4201D30B03C01A5241C30AC1
:4010C0008B4201D3CB02C01A5241830A8B4201D38B02C01A5241430A8B4201D34B02C01A5241030A8B4201D30B02C01A5241CDD2C3098B4201D3CB01C01A524183098B427F
:4011000001D38B01C01A524143098B4201D34B01C01A524103098B4201D30B01C01A5241C3088B4201D3CB00C01A524183088B4201D38B00C01A524143088B4201D34B0017
:40114000C01A5241411A00D201465241104670475DE0CA0F00D04942031000D34042534000229C4603098B422DD3030A8B4212D3FC22890112BA030A8B420CD3890192118C
:401180008B4208D3890192118B4204D389013AD0921100E08909C3098B4201D3CB01C01A524183098B4201D38B01C01A524143098B4201D34B01C01A524103098B4201D3EE
:4011C0000B01C01A5241C3088B4201D3CB00C01A524183088B4201D38B00C01A5241D9D243088B4201D34B00C01A5241411A00D20146634652415B10104601D34042002B6D
:4012000000D54942704763465B1000D3404201B5002000F00BF802BD0029F8D003B5FFF715FF0EBC4243891A1847C0467047C04670B5041E39D0C50F00D04442201C00F039
:4012400093F89E23261C1B1A962B07DC082801DD083884406402640AD8B21EE0992B0ADD0522211C121AD1400A1C011C1B318E40711E8E411643052801DD421F96400F4C9C
:401280003440720704D00F221640042E00D0043462010ED4A401640AD8B26402C005640AED0704432C43201C70BD002500200024F3E7024B1C409F231B1AEBE7FFFFFFFB71
:4012C0004200120E511C38B5C9B243025D0AC40F012915DDE02189008C466D071B0B62440021281C0D0D2D052B431C4D52052B40520813435B00E4075B082343191C38BD4D
:40130000002A15D1002D1FD0281C00F02DF80A281DDC0B232A1C1B1ADA40131C021C153295400F4A1B03121A52051B0B520DD7E7002D06D080221B0B120313436D07094A97
:40134000CEE7084A0023CBE700220023C8E7031C0B3B9D402B1C0025E3E7C046FFFF0F8089030000FF0700001C2101231B04984201D3000C10391B0A984201D3000A08395F
:401380001B09984201D30009043902A2105C40187047C04604030202010101010000000000000000014B18687047C0464C0100200E4B70B500251E1C0D4CE41AA410A5421C
:4013C00004D0AB00F35898470135F8E704F040F8084B00251E1C084CE41AA410A54204D0AB00F35898470135F8E770BD5C5400005C5400005C54000064540000002310B5C9
:40140000934203D0CC5CC4540133F9E710BD031C8218934202D019700133FAE77047F0B58BB0141C1D1E129906DA802424062B191D1C141C2D2300E000230B702023149E1A
:4014400003229E43462E07D0331C453B59424B411099013ACB181093109B00920193139B221C029308AB039309AB04932B1C00F007FD071C472E02D1119BDB072CD5109BF5
:40148000FB180793462E14D13B78302B0CD1201C291C0022002302F06BF8002804D10123109A9B1A139A1360139B079A1B68D3180793201C291C0022002302F059F80028F8
:4014C00001D0079B0993099B079A934204D25A1C099230221A70F6E7381C099B159ADB1B13600BB0F0BDF7B52B23071C0C1C0270861C002901DA2D234C427B70092C1CDD57
:401500006B46DD1D201C0A21FFF786FE013D30312970201C0A21FFF799FD041E092CF1DC013D30342C706B460733301CAB4209D92B78013533700136F5E73023E41833700B
:40154000B01C7470C01BFEBDF0B593B00C1C08920993189E051C01F093FA0368181C0B9300F000FC0023216810930C90277E33680722C90501D59B1800E0073393431A1C90
:40158000083232601A685B68A264E364A06CE16C00F09EFB012818D1A06CE16C0022002301F0ECFF002803D0231C2D2243331A70B64B0A93472F01D9B54B0A93032322689B
:4015C000236101339A43226012E0A06CE16C00F07FFB266800280DD1AE4B0A93472F01D9AD4B0A930323311C2361013399432160002680E080216068C900431C01D1062376
:4016000009E0A26CE36C672F01D0472F04D1002800D0C0E101236360636831430093232321600191002106AA9B1802930FAB039310AB05930497A26CE36C0691281CFFF782
:40164000EEFE20233A1C0A909A43472A07D10F9BDA1C02DB626893422DDD023FFFB20F99652F12D8201C01393A1C50300F91FFF73AFF109A061C83182361012A02DC22684E
:40168000D2072ED5013323612BE0662F14D16368002908DD2161002B02D12268D2071DD50133CB1811E0002B03D101222168114213D09A1C11E067270F9B1098834206DB4D
:4016C00022682361D20709D50133236106E00122002B01DC0221CA1A8218226100260F9BA365232306AA9B181B78002B03D0231C2D2243331A70099B281C0093211C089B3D
:4017000011AA00F05FF9431C02D10120404256E12268530504D4281C08990A9A236916E1652F00D8D4E0A06CE16C0022002301F01FFF00282BD00123281C0899574A099E93
:40174000B047431CE1D00F9B109A934207DB2368DB0704D423689B0700D51AE113E1099E281C08990B9A0C9BB0470026431CCCD0109B013B9E42EDDA221C0123281C08995C
:401780001A32099FB847431CBFD00136F0E70F9B002B2BDC0123281C0899404A099EB047431CB2D00F9B002B05D1109B002B02D12368DB07CED5099E281C08990B9A0C9B10
:4017C000B0470026431CA0D00F9B281C5B4208999E4208DA221C01231A32099FB847431C93D00136F0E70A9A109BB0E0109BA66D9E4200DD1E1C002E01DC002314E0331CE5
:40180000281C08990A9A099FB847431CF5D17CE7221C0123281C08991A32099FB847431C00D172E70D9B01330D93F343A26DDB170D993340D31A9942EADB0A9B9E180F9BCF
:40184000109A93420EDB2368DB070BD4109B0A9AD7180F9ABF1B9B1A9F4200DD1F1C002F09DC11E00C9B281C08990B9A099FB847431CEBD149E7321C3B1C281C0899099EEC
:40188000B047431C00D140E7002315E0765200007A5200007E5200008252000086520000221C0123281C08991A32099EB047431C00D12AE70A9B01330A930F9A109B9A1AC2
:4018C000FB43DB173B40D31A0A9A9A42E8DB41E7109B281C0899012B02DC01231A423CD001230A9A099FB847431C00D10DE70C9B281C08990B9A099FB847431C00D104E739
:40190000A06CE16C0023002201F032FE0023002812D10A9A109B0132013B281C08991DE0221C0123281C08991A32099FB847431C00D1EAE60A9B01330A93109B0A9A013BDF
:401940009A42EDDB221C281C331C08995032099EB047431C00D0FDE6D7E60A9A099FB847431CEFD1D1E6221C0123281C08991932099FB847431C00D1C7E60136E368119AFE
:401980009B1A9E42EFDB119BE068984217DA181C15E00026F2E73143216001912321009006A8091802910FA9039110A90591002104970691281CFFF732FD0A9047E613B043
:4019C000F0BDC046F7B5171C01930A698B6800900C1C934200DA131C221C3B6043321278002A01D001333B6023689B0602D53B6802333B60062523681D401ED0231C4333F7
:401A00001B785A1E9341226892061CD53020E1184031C870211C5A1C45310978A21840320233D1700FE0221C0123009801991932089EB047431C0ED00135E3683A689B1AF6
:401A40009D42F0DBDAE7221C009801994332089DA847431C02D10120404220E006232068E1683A6803400025042B03D18D1AEB43DB171D40A3682269934201DD9B1AED187F
:401A80000027AF420ADA221C0123009801991A32089EB047431CDED00137F2E70020FEBDF0B58BB006920A1C43320793059004920A7E0C1C109B6E2A00D1A8E011D8632A1A
:401AC00022D009D8002A00D1B2E0582A00D0C2E045310A707C4A4FE0642A1DD0692A1BD0B9E0732A00D1A7E009D86F2A29D0702A00D0B0E0202209680A43226037E0752A81
:401B00001FD0782A33D0A6E00E1C1A684236111D196013683370A1E021681A68080606D4490604D5111D19600023D55E02E0111D19601568002D3BDA2D23049A6D421370A1
:401B400036E021681A68080606D4490604D51568111D1960ADB202E0111D196015685A4B227E03930A276F2A1DD108271BE0221C782145321170554A19680392081D2268BB
:401B800018600D68100602D4500600D5ADB2D30702D520231A4322601027002D03D1202322689A432260231C002243331A7002E00A27454B03936368A360002B03DB0422F4
:401BC000216891432160002D02D1049E002B0ED0049E281C391CFFF72FFA039B013E5B5C281C3370391CFFF7A1F9051EF1D1082F09D12368DB0706D563682269934202DC5B
:401C00003023013E3370049B9B1B23612BE009681A68080607D4490605D5111D19601368A28A1A8004E0111D1960136862691A600023049E236116E01A68111D196016686D
:401C40000021301C626800F029FF002801D0801B6060636803E0261C42363270012323610023049A1370079B05980093211C069B09AAFFF7A7FE431C02D10120404221E0F7
:401C8000236905980699321C079DA847431CF4D023689B0705D4099BE068984212DA181C10E00025E368099A9B1A9D42F3DA221C0123059806991932079EB047431CDCD078
:401CC0000135EFE70BB0F0BD885200009952000030B50C1C0223044317D080242406A14201D1002811D00A4B49004908094ACC180423944209D9084A013B914205D9074A2A
:401D00000023914201D143424341181C30BDC0460000F0FFFFFFDF7FFFFF0F000000F07F0EB410B59DB002A9029008610B48822488604861012040421FABC881084804CB0B
:401D4000A400006801938C8101F0AAFA0023029A13701DB010BC08BC03B01847FFFFFF7F4C0100200023C25C0133002AFBD1581E7047F0B503690C6989B00026A3427CDBCE
:401D80000B1C013C1433A50003935B190493031C143301935D19049B07911B680290591C28680593FFF7C2F8071EB74235D0039B01989C460596634604CB91B27943120CBD
:401DC0007A4371180E0C9C46B318069302881E0C059B89B2D2180368521A190C6B461B8BCB1A11145B18191492B21B041A43049B059104C06345DED22B68002B0DD1231CDB
:401E0000019A043D954203D8029A1C1C136104E02A68002AF8D1013BF2E70298079901F059F8002828DB00200199039A013720CA0B881818ABB2C31A08682D0C000C451B1C
:401E40001E14AD1928149BB22D042B4308C1049B9342ECD2019AA300D3181A68002A0BD1019A043B934202D8029B1C6104E01A68002AF9D1013CF3E73E1C301C09B0F0BD76
:401E8000F0B5161C1F1C446A9BB00890239D06960797002C08D1102000F0F6FD089B5862446084600460C460089B5B6A196800290BD05A68012393404A608B60089800F035
:401EC00030FE0022089B5B6A1A60079B002B05DA01232B607B005B08079301E000232B60079CC64B221C17931A409A4219D1C44B229A1360069AC34B002A02D1240300D1B1
:401F0000C14B249A181C002A01D100F0B6FDD978DA1C002900D005322499181C0A6000F0ACFD069E079F0022301C391C002301F01FFB051E0ED00123229A1360B34B249A4E
:401F4000181C002A01D100F098FDB14A24990A6000F093FD19AB009318AB01930898321C3B1C01F03DF861000A90490D09D03803A84C000B0443A848321C231C0E181695F8
:401F80001CE0189B199A9E18A44B9E4209DBA44BF018069BC340181CA24B9B1B9C40204304E0A148069B801B8340181C03F0FAF89E4C021C0B190121013E1691101C191C2B
:401FC00000229B4B02F002FD9A4A9B4B02F064FA9A4A9B4B01F0FAFA041C301C0D1C03F0A5F8984A984B02F057FA021C0B1C201C291C01F0EBFA041C0D1C03F061F8291C7C
:4020000003900022201C002301F0B8FA00280DD0039803F08BF8021C0B1C201C291C01F0A7FA43424341039AD31A039301231393039B162B11D8854ADB00D31818685968EA
:40204000069A079B01F0AEFA002805D0039B013B03930023139300E01390189B9E1B00230D93013E0E9604D50E9B5B420D9300230E93039B002B08DB039A0E9B94466344C4
:402080000E93002312920F9307E00D9B039A9B1A0D9353420F9300231293209B0125092B27D8052B02DD0025043B2093209B981E032823D801F042FA020E0410002300E071
:4020C00001231093219B002B21DC01230B9309931A1C1AE0002300E00123039A10939446219B63440B9301330993002B12DC012310E0002310952093013B02E00123109308
:40210000023B00220B9309931333219202E0219B0B930993089A546A002262600432111C1431994204D86168520001316160F6E70898616800F0BDFC089B20605B6A1B682A
:402140000C93099B0E2B00D988E1002D00D185E1069B079C14931594039B002B30DD0F223A491340DB00CB185C681B6804930594039B02271D11EB060AD514981599344BF9
:4021800015401A6A5B6A01F049FD0690079101372F4C002D0DD0EB0708D5049805992268636802F079F90490059101376D100834EFE706980799049A059B01F02FFD49E0EA
:4021C000039B02275D42002D46D0149815990F231E4A2B40DB00D3181A685B6802F05CF91B4C2D11002D35D0EB0704D522686368013702F051F96D100834F3E70000F07F18
:402200000F270000B3520000AA52000086520000875200000000F03F01FCFFFFEFFBFFFF120400000EFCFFFFEEFBFFFF000010FE0000F83F61436F63A787D23FB3C8608B3F
:40224000288AC63FFB799F501344D33FC05200008853000006900791139B002B1ED0069C079D0022201C291CCE4B01F087F9002814D0099B002B11D00B9B002B00DCE9E054
:40228000039B291C013B1193201C0022C64B02F003F90137069007910B9D02E0039B099D1193381C069B079C0493059402F03EFF049A059B02F0F0F80022BC4B01F086F97E
:4022C00006900791069E079F079BB94A9C18002D1CD1049805990022B64B02F077FB321C231C0490059101F05DF9002800D063E204980599321CB04E079CB4466444231CED
:4023000001F03CF9002800D04CE2A3E0AB4A6B1E1099DB00D31800294ED01A685B680020A74901F07BFC321C231C02F04FFB049E059F0C9B069007910493391C301C02F0CF
:40234000BFFE041C02F0F2FE021C0B1C301C391C02F03CFB049B303401330493013B1C70069A079B061C0F1C01F008F9002800D061E3321C3B1C00208A4902F027FB069AF0
:40238000079B01F0FBF8002800D0CDE0049B0C9A9B1AAB425EDA069807990022824B02F07BF80022069007917F4B301C391C02F073F8061C0F1CC0E718685968321C231C67
:4023C00002F06AF8049E059F0C9C0690079163190493391C301C02F073FE051C02F0A6FE0B1C021C391C301C02F0F0FA3035049B25700134061C0F1CA34224D10022069828
:4024000007996F4B01F0E2F8021C0B1C301C391C01F0C8F8002800D086E0069A079B0020674902F0D3FA021C0B1C301C391C01F0A5F800280ED0049B013B1A78302A00D0A0
:40244000F9E20493F7E70022574B02F025F8061C0F1CBEE7149B159C06930794199B002B00DA86E0039A0E2A00DD82E0D300534AD3181E685F68219B002B14DA099B002B34
:4024800011DC00D090E1301C391C0022494B02F003F8069A079B01F08FF8099F3E1C002800D083E18CE10C9B069C079D0493321C3B1C201C291C01F0B1FB02F001FE069057
:4024C00002F034FE321C3B1C01F0E6FF021C0B1C201C291C02F07AFA0B1C0499021C0698013104913030013908700C980499091A099881422ED1101C191C01F067F8321CF2
:402500003B1C041C0D1C01F04DF8002810D1201C291C321C3B1C01F02BF8002800D18CE2069BDB0704D488E2119B039300E00493049B013B1A78392A08D10C9A9342F6D1B2
:40254000039B0133039330231370131C1A7801321A7072E2101C191C0022134B01F09CFF00220023041C0D1C01F002F800289ED063E2109A002A44D0209A012A0BDC169A26
:40258000002A02D00F4A9B1802E03623189A9B1A0F9D0D9C29E0099B5D1E0F9BAB4213DB5D1B18E00000F03F0000244000001C400000C0FC000014400000C07CC0520000B2
:4025C0000000E03F330400000F9B0F95EA1A0025129B9B181293099B002B04DA0D9B099A9C1A002301E00D9C099B0D9A0898D2180D920E9A0121D3180E9300F031FB061CA6
:4026000002E00F9D0D9C109E002C0CD00E9B002B09DDA34200DD231C0D9AE41AD21A0D920E9AD31A0E930F9B002B21DD109B002B18D0002D10DD311C2A1C089800F0A6FB1D
:40264000061C0A9A311C089800F013FB071C0A99089800F066FA0A970F9B5A1B08D008980A9902E008980A990F9A00F08FFB0A900898012100F0F4FA129B071C002B0ADDB4
:40268000391C1A1C089800F081FB209B071C0025012B1BDC03E0209B0025012B12DC0025069BAB420ED1079B1B03AB420AD1179B079A134206D00D9B013501330D930E9B8D
:4026C00001330E93129B0120002B08D03B6903339B00FB18586800F079FA2023181A0E9BC0181F23184009D001331B1A042B02DD1C23181A03E0042B08D0181C1C300D9B26
:4027000024181B180D930E9B1B180E930D9B002B05DD08980A991A1C00F08AFB0A900E9B002B05DD391C08981A1C00F081FB071C139B002B1ED00A98391C00F0CBFB0028C4
:4027400018DA039B0898013B03930A9900230A2200F000FA109B0A90002B00D17FE1311C002308980A2200F0F5F90B9B061C002B3CDC7DE1099B002B2EDC209B022B2BDD8E
:40278000099B0B930B9B002B10D1391C0898052200F0E0F9071C0A98391C00F09BFB00280EDC03E02F1C00E000273E1C219BDB4303930C9B04930CE02F1C2E1C119B03938E
:4027C0000C9B0C9A0133049331231370039B01330393099600261AE1109B002B04D1099B0B930C9D0A9CD0E0099B0B93002C05DD311C0898221C00F01BFB061C0996002D67
:4028000012D07168089800F054F9311C041C33690C319A1C92000C30FEF7F0FD0898211C012200F005FB09900C9B0C9A0E930B9B0A9C013BD3181093391C201CFFF799FAAD
:40284000031C0F903033311C201C0D9300F042FB391C0B90099A089800F057FB01230493C368051C002B04D1201C291C00F032FB04900898291C00F054F9049B209A134362
:4028800010D1069A013313420CD10D980A9439283DD00B9B002B01DD0F9831300E9B013304933EE00B9B002B05DA049B0D9D0A94002B09DC1CE00B9D209B1D431ED10123BE
:4028C000069A13421AD1F0E7211C0898012200F0AFFA391C0A9000F0FDFA002803DC07D10D9BDB0704D50D9B392B10D01D1C01350E9B013304930E9B1D7088E00E9B5D1CE1
:40290000049B002B10DD0D9B0A94392B06D10E9B0E9A013304933923137060E00D98049501300E9B187072E06A463421521812780E9B04951A70109A93423FD0211C0A2276
:402940000023089800F006F9099B041C311C08980A229E4205D1002300F0FCF8061C09900AE0002300F0F6F80999061C0A220898002300F0EFF809900E955DE7211C08987E
:402980000A22002300F0E6F8041C201C391CFFF7F0F934226B4630309B180D901B780B9A2B700C9B0135EB1A9342E7DB131E00DC0123099600260C9AD3180493211C08986C
:4029C000012200F035FA391C0A9000F083FA002805DC15D10D9BDB0701D411E00493049B013B1A78392A08D10C9A9342F6D1039B013303933123137009E001321A7006E0AD
:402A0000049B013B1A78302A01D10493F8E70898391C00F086F8099B002B0ED0002E05D09E4203D00898311C00F07BF80898099900F077F801E0119B039308980A9900F07A
:402A400070F80023049A0C981370039B229A01331360249B002B10D0049A1A600DE00B9B002B00DDBDE6209B022B00DD8AE6B8E6209B022B00DD85E6B8E61BB0F0BDC046C6
:402A8000004870475001002008B5034B011C186800F04EFB08BDC0464C010020C9B28218904204D003788B4202D00130F8E70020704770B5466A041C0D1C002E07D110207D
:402AC000FFF7E2FF6062466086600660C660666AF368002B09D0626AAB00D268D318186800280ED002681A6017E0201C0421212200F0CAFA636AF060DB68002BEBD100203A
:402B00000EE001210E1CAE40721D9200201C00F0BBFA0028F3D04560866000230361C36070BD70B5456A061C0C1C002D07D11020FFF7AAFF7062456085600560C560002C1A
:402B400007D0726A6368D2689B00D3181A6822601C6070BDF7B51E1C14239C46071C0C1C00200D698C44634619881B6851431B0C534389190E0CF31889B21E0C1B045B18DE
:402B80006146013008C18C46A842ECDB002E1BD0A3689D4212DB6368381C591CFFF789FF211C236901909A1C0C3192000C30FEF725FC211C381CFFF7B4FF019C2B1D9B0004
:402BC000E31801355E602561201CFEBD0022031C010C914201D103041032190E01D108321B02190F01D104321B01990F01D102329B00101C002B03DB20205B0000D5501C37
:402C000070470722036810B5011C1A400CD001240020234223D10222134203D0E340201C0B601CE09B0818E098B2002801D110221B0CD8B2002801D108321B0A180701D175
:402C400004321B09980701D102329B08D80704D45B082020002B02D00132101C0B6010BD10B50C1C0121FFF724FF01234461036110BDF0B50B69141C126989B00D1C9342A7
:402C800001DA251C0C1C2F692669AA68BB1969680093934200DD0131FFF70BFF011C009B1431844698000B1C0818834202D2002204C3FAE71435BF00EB191434B6000493D1
:402CC000A31902950693069B9C4256D223880393002B22D00E1C0027029B0193019B039D04CB059601933388079393B26B43079D120CEB183568DB192F0C039D6A43BA182F
:402D00001F0CD219170C9BB21204134308C6019A049B9A42E2D3059B5F6023681B0C019321D000220D1C0B68029F03923E88019A9BB256432A680595120CB218039E9219D7
:402D4000160433432B6008CF019E1B0C7343AE88120C9B199B181A0C0392049A0435BA42E4D8059A536004340431ACE704380368002B05D1009B013B0093009B002BF5DCE5
:402D800063466046009A1A6109B0F0BD0323F7B51340051C0E1C141C002B07D0224A013B9B009A580023FFF7D5FE061CA310019337D06C6A002C07D11020FFF765FE6862E9
:402DC000446084600460C4606F6ABC68002C10D1281C1649FFF744FF0023B860041C036007E0019B5B1001931BD0206800280FD0041C019BDB07F4D5311C221C281CFFF7F7
:402E000038FF071C311C281CFFF78BFE3E1CE8E7281C211C221CFFF72CFF002320600360E6E7301CFEBDC046B053000071020000F0B50C1C171C2369551185B0EB1801930B
:402E4000013300934968A3680290009A9A4202DD01315B00F9E70298FFF72BFE021C061C00231432AB4204DA0020990050500133F8E7EB43DB171D40231CAD005519226980
:402E8000143392009A1894461F22174014D00132D21B039200221968281CB9400A4304C504CB0399CA409C45F5D84260002A07D0019B0233009303E004CB04C59C45FBD82D
:402EC000009B0298013B3361211CFFF72AFE301C05B0F0BD03690A6910B59B1A041C181E12D1930014341431E218C918043A043913680868834204D083429B41012018431B
:402F000002E0A242F2D8002010BDF0B5071C85B0081C0C1C111C151CFFF7DCFF061E07D1381C311CFFF7C5FD01234661036155E000230193984204DA231C2C1C1D1C012390
:402F40000193381C6168FFF7B4FD019B26692F1CC3601434B300E318021C02932B69002514379B00FB180393143208CC69469C4608CF0432009363468B808B885D19009B4C
:402F80009BB2EB1A65460193009B2D0C190C019B691A1D14131F9C466B4649199B880D1409040B4361460B60039B9F42DDD30299131C8C420BD208CC99B249190D141B0CF2
:402FC000EB181D1489B21B040B4308C2EFE7043B1A68002A01D1013EF9E7066105B0F0BDF7B51D1C0121089F141CFFF762FD2B036D00061C1B0B6D0D02D080225203134301
:403000000193002C18D068460094FFF7FAFD009C002809D02023019A191A131C8B40C24023437361019200E07461019CB461631E9C410134346107E001A8FFF7E2FD012429
:40304000019B346173612030002D06D00B4BED1835232D183D60181A0BE0094BC018094B3860E3189B00F3185869FFF7AFFD6401201A099B1860301CFEBDC046CDFBFFFF9C
:40308000CEFBFFFFFFFFFF3F4A4338B5111C141C00F04EF8051E03D00021221CFEF7B7F9281C38BD30B500293ED004390B68002B00DAC9181D4A1368141C002B02D14B6060
:4030C000116031E099420DD208680A189A4203D11368C3180B6053684B60216024E08A4203D8131C5A68002AF9D11D685C198C420BD10968691858181960904214D110686C
:403100005268091819605A600EE08C4202D90C23036009E008680C18944203D114685268001908604A60596030BDC046D8010020032370B5CC1C9C430834051C0C2C01D2B1
:403140000C2405E0002C03DA0C2300202B6042E08C42F9D3204A1368101C191C002913D00A68121B0DD40B2A02D90A608B181FE08B4202D15A6802601BE04A685A600B1C5B
:4031800017E00B1C4968E9E7144E3368002B03D1281C00F07BF93060281C211C00F076F9031C421CD0D00322C61C964386420AD11C60181C07210B301A1D8843821A0AD031
:4031C0005142995007E0311A281C00F05FF9431CBAD0331CECE770BDD8010020D4010020F0B58E6885B0071C0C1C03920193B34245D390238A89DB001A423DD0032509697A
:40320000236801985B1A029363695D43EB0F5D19029B6D1001331B189D4200D21D1C381C53050FD5291CFFF783FF061E13D0029A2169FEF7E3F8A289184B134080221343F6
:40324000A38111E02A1C00F047F9061E0CD1381C2169FFF727FF0C23402201203B60A38940421343A38117E0029B2661F61826606561019EED1AA560019BB34200D2019E31
:40328000321C2068039900F013F90020A3689B1BA36023689E19266005B0F0BD7FFBFFFFF0B59FB0029005938B890E1C171C1B0610D50B69002B0DD14021FFF739FF3060E9
:4032C0003061002804D10C23029A01381360D0E040237361002306AD6B6120336B761033AB763C1C2378002B03D1E31B049312D003E0252BF9D00134F4E7049B0298311CAD
:403300003A1CFFF76DFF431C00D1ACE06A69049B944663446B612378002B00D1A3E00122002352426A6002A95432521801342B60EB60AB601370AB654F4F2178381C0522A6
:40334000FFF7ACFB002808D0C01B01278740381C2B68013418432860EEE72B68DA0604D55322202102A8121811701A0704D553222B2102A81218117022782A2A01D0099B48
:403380000EE0059A111D12680591002A01DB099204E05242EA60022213432B60013409E02278303A092A04D80A214B4301349B18F6E7099323782E2B18D163782A2B09D1A8
:4033C000059B02341A1D1B680592002B0DDA01235B420AE0002301342278303A092A04D80A214B4301349B18F6E70793234F2178381C0322FFF752FB002807D0C01B40275E
:403400008740381C2B6801341843286021781C480622671C2976FFF741FB002812D0194B002B06D10722059B073393430833059314E005AB00930298291C321C124BFEF77B
:4034400083F807E005AB00930298291C321C0E4BFEF726FB0390039B013304D06B69039A9B186B613DE7B3890B985B0601D5012040421FB0F0BDC046BC530000C25300005F
:40348000C653000049150000E131000038B50023064C051C081C2360FCF756FF431C03D12368002B00D02B6038BDC046EC01002010B5814208D28B18984205D29B1A013A1F
:4034C00009D3995C8154FAE70023934203D0CC5CC4540133F9E710BDF8B5061C0C1C151C002904D1111CFFF723FE041C18E0002A03D1FFF7D7FD2C1C12E000F013F8A842F0
:403500000ED2301C291CFFF713FE071E07D0211C2A1CFDF773FF301C211CFFF7C3FD3C1C201CF8BD0B1F1A68101F002A04DA891804390B68D01804387047000002B471462A
:4035400049084900095C49008E4402BC7047C0468446101C62468C46191C634600E0C0461FB500F033FF002801D40021C8421FBD10B500F077FE4042013010BD10B500F029
:4035800025FF002801DB002010BD012010BDC04610B500F01BFF002801DD002010BD012010BDC04610B500F0A1FE002801DC002010BD012010BDC04610B500F097FE0028A0
:4035C00001DA002010BD012010BDC046F0B5454657464E4694464C000A03C90FE0B488460E1C1903470FC500480A6146490F01436046520A1743C0005A00640D520DDB0F1B
:403600008446984500D1A7E0A01A002800DC01E1002A3DD163460B4300D0D4E06B0700D188E00F232B40042B00D183E02A1DAA42AD4180236D427F191B043B404646151C2B
:40364000002B00D17CE0CC4B01349C4200D1FDE03A1CCA4BED081A405007640552020543120B640D002112030B0D1B056405120B1A436308C24CF60714401C43640064082C
:403680003443281C211C1CBC90469946A246F0BDB94B9C42C2D080231B041943382800DDECE01F2800DD21E120220E1C6346121A9640C340334366469640321C561EB24168
:4036C00013430A1CC240EB1A9D42B6411D1CBA1A7642971B3B0200D497E07A02560A002E00D1B6E0301CFDF73FFE031C083B1F2B00DDB7E09E40371C28262A1C361AF2401D
:40370000161C9D403E439C4200DDB2E01C1B621C1F2A00DDD8E01F23291C1C1B331CA540A340D1406C1EA541D64019430D43371C002473E780231B043B40464600D082E72E
:403740008D4BED0878070543FA089C4232D012036405120B640D85E7A31A002B00DC94E0002A3CD0844A944200D157E7802212041143382B00DC05E163461943481E8141DC
:403780000022C8B24019A8429B41051CD2195B42D7183B0239D5784B01349C4200D14CE10120764A6B083A4028401843D5070543570833E72B1C134348D080231B031A4396
:4037C0001203120B4EE70138002878D16346EE1AB5429B417A1A5B42D71A351C7AE7021C0A4300D11AE7013B002B00D0F2E04019A8429B41CA195B42D718051CC9E7131C8C
:40380000334300D118E1171C351C46466B0700D007E795E700287AD1621C5205520D012A00DCFBE06246AA1A9542B6419146781A7242861A320200D493E06246551BAC4588
:403840008041CF1B40423E1A984648E70022002508E7281CFDF788FD2030031C083B1F2B00DC47E7283885402E1C00259C4200DC4CE7424AE41A1640371CCFE6634619434F
:403880004B1E99410022CBB21DE7002B00D0F2E0601C43055B0D012B00DCA4E0364B984200D121E163465C19AC429B41CF195B42FA186408D50725435708041CAEE62E4BB4
:4038C0009C4200D0EAE6A9E6211C331C1F39CB40191C202A00D182E03F231C1BA64035436E1EB54100270D4300248EE7031C0E1C203BDE40202874D040231B1A99400B1CAB
:4039000062461343591E8B4100223343DBE6002C50D0194CA24200D1A8E08024240440422743382800DDD9E01F2800DD39E120243E1C241AA640B0462E1CA146C64044469A
:4039400026434C46A5406C1EA541C74035436046451BCF1BAC45894149427F1A141C9846B8E64B464D46334300D0B8E60026002700240025E4E6C046FF070000FFFF7FFF0D
:40398000FFFF0F801F2B5BDC2022081CD21A9040814660469246D8404A4610438146524660469040021C501E8241484610430A1CDA40E7E63C1C2C4358D0C043002851D149
:4039C0006046451BAC458041CF1B40423F1A141C98467FE68F4A944200D0CAE61EE600267DE700238CE73B1C2B43002C00D0BDE0002B00D1F5E063460B4300D10EE66346F0
:403A00005B19AB428041CA19404217183A0200D4FCE0814A1D1C17400134FFE53A1C2A43002C51D1002A00D085E062460A4303D00F1C65469846F1E50026002700257FE6D7
:403A4000181C0A1C2038C240202B00D1A7E04020C01A8140081C63461843411E8841104300228FE66B4CA24200D05AE70F1C6546141C9846D2E5002C3AD1381C284371D03C
:403A8000DB43002B18D0634882426BD0382B00DD9DE01F2B00DDA7E020203C1CC01A8440A1462C1C8246DC404846044350468540681E8541DF402543654465459B417F18AE
:403AC0005B42FF18141C64E6002A19D162460A4377D00F1C654698464E4C9FE53D436F1EBD410027EDB232E7041C0027002527E64848824236D0802000045B420743C5E782
:403B000062460A4349D08024ED087807FA0824032843224209D0CE08264206D162464F07381CD20810439846321CD200470F1743C500384C72E562460A4300D16EE56246EB
:403B4000AE1AB5429241781A5242821A100200D455E66246551BAC458041CA1B4042171A98465BE50F1C6546141C57E5002B34D063460B4311D08024ED087807FA082403C6
:403B800028432242D1D0CB082342CED162464F07381CD20810431A1CC7E71E4C3EE5002059E7041C3E1C203CE640341C20282BD04026301A87403D436F1EBD4100272543CE
:403BC000C5E680270026FF03124C0025B8E53D436F1EBD410027EDB26EE70F1C65460D4C1CE50F1C654619E51C1C381C203CE040041C202B0CD04020C31A9F403D436F1E89
:403C0000BD410027254357E70027D4E71D1CFCE50027F3E7FF070000FFFF7FFFF0B55F4656464D464446F0B40F0387B098464D003B0BCC0F061C924681469B466D0D01944D
:403C40006BD0664B9D4235D080275B467F031F43F3009946624BFF00400F9C4607430023BB46002665440093424617035000D20F53463F0B400D904600D172E0574A90425A
:403C800067D080235B031F435346554A5B0FFF001F43944653460021DB0060444246624092462D1A0E430F2E00D9A1E04D48B600805987465B461E4300D076E000239B4606
:403CC0009946023308260093CEE799464346BB4601930091009B022B6BD1019B9A46002153460122002789461A403C4B00213F030C0D24053F0B27433B4C1B0527401F43AF
:403D00007F00D2077F0817434846391C07B03CBC90469946A246AB46F0BD03433ED05B46002B00D19CE15846FDF71EFB2823311C1B1A021C5F46D940083A97400B1C9640A5
:403D40003B439B46B1460023284D00262D1A00938AE7524603213A43A0D10027002302219CE752463A4315D0002F00D185E1381CFDF7FAFA021C28215046891A131CC840D7
:403D80005146083B99409F400B1C074317480021801A83E70027002301217FE700239B4699460133042600935EE703230C2600935AE7032B00D13CE2012B00D0BFE11A1C76
:403DC000019B1A4000210023002789468EE700238027994600223F03004B87E7FF07000001FCFFFFD0530000FFFF0F800DFCFFFFBB4500D951E100D14CE14A460392002250
:403E00005C469046013D180E3F0238431B020193030C994603041B0C4946061C201C1F1C0093FDF783F8021C7A4302904946201C171CFDF701F9039B09041B0C19438F429B
:403E40000CD9029B8919013B8E4200D952E18F4200D84FE1029B8919023B0293CC1B201C4946FDF763F8009F834647434946201CFDF7E2F8039A0B041404240C23439F4255
:403E80000DD95A469B19013A9E4200D930E19F4200D82DE10222524294469B19E344029ADB1B17045A463A439346019C170C220C101C04925A4611042204120C141C090CFE
:403EC0007C4305924A43414347436118100C09188C4203D980204002844667440C0C12040804120C3C198118A34200D2E5E000D1DFE01F1B43465C1AA04592415242BF1A6A
:403F0000B74200D10EE1381C4946FDF70FF8009B029043434946381C9846FDF78DF8230C0F041F43B8450CD9029BBF19013BBE4200D9FBE0B84500D8F8E0029BBF19023BB3
:403F400002934346FF1A4946381CFCF7EFFF009B039043434946381C9846FDF76DF824040904240C214388450CD9039B8919013B8E4200D9DCE0884500D8D9E0039B89197E
:403F8000023B03934346C91A029B039A1B04059C1A43100C13049146221C049F1B0C5A4344437B437843E318170CDB199C4203D980246402A44660441C0C12041B04120CDD
:403FC00000199B18814200D296E000D1FCE04A4601231A4391469B4BEB18002B00DC99E04A4652070AD00F2249460A40042A05D00431494592418946524293445A46D201D9
:4040000006D55A46904B1A4080239346DB00EB188E4A934200DD62E64A465946D208490711435A4689465702514601225B053F0B5B0D0A405AE680205A460003024208D07A
:40404000074206D107433F0399463F0B4246804B4CE65F4607433F033F0B221C7C4B45E6FDF782F9031C2030272800DC5EE6083B9E400023B346994665E65046FDF774F990
:40408000021C2032272A00DC75E657460838874000237BE6994500D2AFE65A46594654084A46C8075208024303924A46D2079046A9E60027884500D31CE7019F5A46BC4693
:4040C000E044B845BF417F42BF19FF18013ABE4206D2BC425FD800D19FE03F1B934609E7B742FAD1019B4345F3D9371B934601E79346D4E60293B1E64A468919013A8E4271
:4041000018D99146814200D061E7019A9A4200D05DE760E74F4F7F1B382F13DD012253461A404FE601235B42994654E7029308E7039327E788423CD874D0914647E7019B6A
:404140009A4648E71F2F44DC434B4A469C465B466544FA40AB4013434A46AA40151C6A1E95415A46FA402B43171C5A0709D00F221A40042A05D01A1D9A429B415B42FF180E
:40418000131C3A023ED55346012200211A40002701238946AAE502235B429C46019AE3449446E04490459B415B429B19DF193F1BA0E6019F4A467C00BC42BF417F42BF1920
:4041C000023AC91901949CE7002B95D1002201929BE75A46214B5B1BDA40202F27D0204B9C465B466544AB4049460B43591E8B411343072200271A4007D00F2200271A40B4
:40420000042AB8D17A077F023F0BDB0813439946012253461A40002368E54145BBD89346002767E6019C9C42C3D391466DE70023DAE780275B463F031F433F033F0B019A44
:40424000034B53E5FF030000FFFFFFFEFE070000FF07000002FCFFFF1E040000E2FBFFFF3E040000F0B55F464D4644465646F0B41F035C00DB0F99461B4B0E034D00C90FEB
:404280008446360B6D0D8B4690463F0B640D9D420CD0154B9C4210D00123A54214D0181C3CBC90469946A246AB46F0BD311C01230143F4D10C4B9C42EED13A430123002AAF
:4042C000EDD10123A542EAD1BE42E8D1C445E6D1CB4506D0002DE2D13043031C581E8341DDE70023DBE7C046FF070000F0B5574645464E46E0B40F034E00C90F8A46324902
:404300001D035C0084463F0B760D90462D0B640DDB0F8E420FD08C4239D0002E10D13843414241418946002C27D12A4325D1002000290ED108E0391C01432ED1B44226D002
:40434000002C0BD09A450DD05346594201231943081C1CBC90469946A246F0BD2A43F3D09A45F1D1A642EFDC1ADA504641424841012341421943081CEBE74A46002AE1D002
:4043800058425841012241421143081CE1E7291C114302D1002EC2D0D4E702204042D8E7AF42D1D809D00020AF42D2D2504641424841012340421843CBE7C445C4D8002058
:4043C000C445F3D3C5E7C046FF070000F0B55F464D46444656468046F0B4061C0803000B84462C484C001F035D00C90F640D8B4691463F0B6D0DDB0F844212D0854225D085
:40440000002C14D161460E4370424641002D35D0002E21D058425841012143420B43181C0EE06146022031430AD1A5420ED0002D12D13A4310D15B46594201231943081C74
:404440003CBC90469946A246AB46F0BD391C02201143F5D1002CD5D09B45ECD1AC42EADC05DBBC45E7D80FD00020BC45E8D2584641424841414201200843E1E73A43C7D186
:404480000020002EDCD1D6E7C845D4D80020C845EDD3D5E7FF070000F0B55F4656464D464446F0B4051C061C080387B099464F00030BCC0F92469B467F0D019467D06C4BD1
:4044C0009F4236D080205B4640031843C0006B0F1843684B83469C4600239846EE00674400934B4649461D03C90F5B0052462D0B5B0D894600D16EE05D498B4264D08020F6
:404500005C4940038C4600210543ED00500F0543D20063444846FF187B1C9A46009B604002900B430F2B00D9ACE053489B00C3589F465B461D4300D082E00823009300232B
:404540009B46023300269846CBE7029B01934346022B59D1012400250026019B1C40444B00212D030A0D12052D0B1543434A1B0515401D436D00E4076D082543301C291C30
:4045800007B03CBC90469946A246AB46F0BD2B434ED05B46002B00D185E15846FCF7E4FE021C2823291C9B1A161C5846D940083EB0400B1CB54003439B462E1C0023304F5E
:4045C0000093BF1A98468CE7514629432ED10025002202219EE75146294323D0002D00D154E1281CFCF7C0FE031C28215046C91A1A1CC8405146083A914095400A1C0543E3
:404600001F480021C31A85E7032B00D1C2E1012B00D06DE14446019B00251C40E4B2002300269DE700250022012173E7032171E70423009300239B4601330026984650E747
:404640000C230093093B98464BE7802500242D030026074B84E74B46AB46161C0193884675E7029BAB46161C019388466FE7C046FF07000001FCFFFF10540000FFFF0F8066
:404680000DFCFFFF330C3604360C9C46331C140C1204120C53439846634653439946634663430193331C41466343090C4B445B18994505D98020400281460199494401918D
:4046C000190C039141460904090C1B045B1804932B0C9846331C2D04290C4B43604600934346654658435E43009B4D431B0C9946AE194E448446B54203D980235B02994628
:40470000CC44350C2B1C0398634484460593009B36041B041B0CF3189C446046039058460504060C280C84465043351C81466046654344434846000C8346724314195C44E2
:40474000A24203D98022520293465D44220CAD184A461204120C24044046A41862464A437143464360460096464670438046100C84468844E044414505D9802149028C463D
:40478000009961440091019803998446614499429B415B4299460598434684461204120C1B049B1863449C46AB4683429B4140460A19CC44A2428941E344CC45B6415C460A
:4047C000000C8046494276425B426418334398448C428941AB459B4149425B4219430D1C009B4544EE187602E50D2E43B346049B56021E43731E9E415B46D20D3243660205
:404800001643DB010AD50123334076081E435B46DB071E435B465B089B465746634BFB18002B5ADD720709D00F223240042A05D0321DB242B6417642B344161C5A46D201DF
:4048400006D55A465A4B1A4080239346DB00FB18584A934234DD0124029B00251C400026554B7DE680205B460003034208D0054206D105432D032D0B4C46161C4E4B6FE67F
:404880005D4605432D032D0B4B4B69E65046FCF76BFD031C2033272B00DCA6E65546083885400022ACE6281CFCF75EFD021C2032272A00DC75E6083885400026AB467DE646
:4048C0005A46F608520716435A4601245502029A5B052D0B5B0D144042E6384DED1B382D0ADD0124029B00251C400026002337E6019B5746029391E71F2D25DC304B321C56
:404900009C466744BE405B46BB40371CEA407E1EB74113433B431E1C5B46EB401D1C730709D00F233340042B05D0331DB342B6417642AD191E1C2B0220D50124029B002533
:404940001C40002601230BE65A461E4BDB1BDA40131C202D1CD01C4A94465A466744BA40171C3E43721E96411E4307230025334007D00F2300253340042BD6D16B076D0204
:404980002D0B0124F6081E43029B1C400023E7E50027E6E780255B4601242D031D43019B2D0323401C1C2D0B034BD9E5FF030000FFFFFFFEFE070000FF07000002FCFFFFB5
:4049C0001E040000E2FBFFFF3E040000F0B54D4644465F465646F0B40E1C111C3203520A470F1743C5001A035800DB0F9946520A4B0F83B01A43CB000193CF4B7400F60FFE
:404A0000640DB046400D984200D1E8E00123494659400B1C9E4200D1B1E0261A002E00DC1CE1002842D1131C01990B4300D0E6E06B0700D18EE00F232B40042B00D189E0B4
:404A40002A1DAA42AD418023012641466D427F191B043B400E40151C002B00D183E0B64B01349C4200D116E13A1CB44BED081A405007640552020543120B640D0021120365
:404A80000B0D1B056405120B1A436308AC4CF60714401C43640064083443281C211C03B03CBC90469946A246AB46F0BDA24B9C42BED080231B041A43382E00DD03E11F2E2E
:404AC00000DD3FE12020831B9946131C49468B409C46019B6046F34003430198F2408840011C481E81410B43EB1A9D4280411D1CBA1A4042171A3B0200D4A8E07A02560AD6
:404B0000002E00D1CAE0301CFCF72EFC031C083B1F2B00DDCBE02822291C121AD1409E400A1C9D4032439C4200DDC8E01C1B671C1F2F00DDEDE01F23291C1C1B131CA54026
:404B4000A340F9406C1EA541FA4019430D43171C00246DE78023012642461B043B401640002B00D07BE7744BED0878070543FA089C423BD012036405120B640D7EE7231A65
:404B80009A46002B00DCA5E0002844D06A48844200D14DE78020000402435346382B00DC1CE1019B1A43511E8A41D1B200224919A94280410D1CD219404217183B0246D50F
:404BC0005D4B01349C4200D169E101205B4A6B083A4028401843D5070543570828E7131C01990B4300D111E74B4613E72B1C134351D080231B031A431203120B3EE7013EFA
:404C0000002E00D080E0691A8D429B41BA1A5B42D71A0D1C6FE7101C019B184300D107E701235B429C46E2445346002B00D002E1019BD2195919A9429B415B42D7180D1C70
:404C4000BCE76346034300D128E1071C65466B0700D0F0E6012643461E4084E7002E00D081E0601C4005400D012800DC07E10199681A84466545B641B81A7642861B30022B
:404C800000D4A1E08C464D1BAC458941D21B4942561A984634E700220025EFE6281CFCF763FB2030031C083B1F2B00DC33E7021C283A95402A1C00259C4200DC36E71F4F21
:404CC000E41A1740B4E6019B1A43511E8A41D3B2002209E7002B00D001E1601C43055B0D012B00DCB0E0144B984200D11EE1019BD2195919A9429B415B42D2184908D507DD
:404D00000D435708041C93E60B4B9C4200D0D3E68EE6211C131C1F39CB40191C202F00D18EE03F231C1BA24015436A1E954100270D4300248BE7C046FF070000FFFF7FFFA2
:404D4000FFFF0F80331C101C203BD840202E79D040239B1B9A40131C019A1343591E8B4100220343C0E6002C53D0C74CA04200D1B0E0802471428946240427434946382970
:404D800000DDCDE01F2900DD59E120243E1C611A8E408A46B04649462E1CCE405146B4468D4064464646494626436C1EA541CF4035430199D71B8C464D1BAC4592415242D5
:404DC000BF1A041C984696E663466546334300D096E60026002700240025C4E61F2B61DC2020C31A9B46131C59468B4051469946019BCB409C464B46604603439C465B46ED
:404E0000019999406346481E814119435346DA40CDE63C1C2C435DD0F1438946002955D10199D21B8C464D1BAC4589414942571A041C98465FE69448844200D0ADE6F7E58A
:404E4000002271E7002387E73B1C2B43002C00D0DAE0002B00D113E1131C01990B4300D1E6E54919A9429B41D2195B42D7183B0200D421E1854B0D1C1F40041CD8E5381CCD
:404E80002843002C40D1002800D083E0101C0199084303D0171C0D1C9846C9E500260027002560E65046131C2038C340181C5346202B00D1C1E0402351465B1A9A400199DE
:404EC00011434A1E91410022014370E66E4CA04200D053E7171C019D041C9846A8E5002C28D13C1C2C4300D18AE0DB439A46002B00D082E0019BD2199C4665449D42894129
:404F000049425718041C59E600285BD1101C0199084300D1A4E0171C0D1C98465A4C87E53D436F1EBD410027EDB242E7041C0027002518E6544CA04262D0534680245B4220
:404F40009A46240427435346382B00DD8EE01F2B00DD9DE02024E31A9B463B1C59468B40514699462B1CCB409C464B46644623439C465B469D4063466C1EA541CF401D43BE
:404F8000019BBF189C4665449D4292415242BF18041C13E6101C0199084300D148E5681A844685428041BE1A4042301A060200D447E68C464D1BAC458941D21B4942571A4F
:404FC000984635E5101C0199084334D080247807ED08FF0824032843274208D0D608264205D1C90852070A43101C371C9846FF00420F1743C500244C1AE5234CA042A2D120
:40500000171C019D041C13E5002B35D0131C01990B4310D080247807ED08FF08240328432742E4D0D3082342E1D1C90852070A43101C1F1CDBE7144CFAE400223FE74C46E8
:405040003E1C203CE6404946341C202932D04026761AB7403D436F1EBD4100272543A8E680270026FF03084C00257CE53D436F1EBD410027EDB283E7171C019D024CD7E457
:40508000171C019DD4E4C046FF070000FFFF7FFF54463B1C203CE3401C1C5346202B0DD0402351465B1A9F403D436F1EBD410027254365E70027CDE70D1CC8E50027F3E790
:4050C0000B0330B5134C1A0B4B00051C5B0DC90F0020A34210DD104883420EDC80200F4C40030243E41A1F2C0ADD0D48C31ADA40131C48424340581830BD0A4BC818FBE7E5
:40510000281CE040084CA44663449A40131C0343EFE7C046FE0300001D0400003304000013040000FFFFFF7FEDFBFFFF38B5041E16D0C50F00D04442201CFCF715F9174B6B
:405140001B1A0A2821DC021C211C153291400A1C0B21081AC4405B052403240B5B0D03E000250023002400220021101C24030A0D1205240B14430A4A1B0514401C4364009E
:40518000ED0764082C43211C38BD0B3884405B052403240B5B0D0022E6E7C0461E040000FFFF0F8010B5041E10D0FCF7DDF8144A121A0A281ADC0B23211C1B1AD9401530E6
:4051C0000B03520584401B0B520D01E00022002300211B03201C1C0B0B0D1B052343094C1205234013435B00590810BD031C0B3B9C40520523031B0B520D0024E8E7C046B1
:405200001E040000FFFF0F8000000000000000000A204144432053746172746564200D00252E3466000000000A2073656E645F76616C7565200D000000300F40000400407C
:405240000F400004030405060708090A0B0C0E0F101112131415161718191B1C1D1E1F2021222325262728292A2B2E2F30313233343500004300494E4600696E66004E41FF
:405280004E006E616E00300030313233343536373839414243444546003031323334353637383961626364656600496E66696E697479004E614E00504F534958002E000027
:4052C000000000000000F03F000000000000244000000000000059400000000000408F40000000000088C34000000000006AF8400000000080842E4100000000D01263414D
:405300000000000084D797410000000065CDCD41000000205FA00242000000E876483742000000A2941A6D42000040E59C30A2420000901EC4BCD64200003426F56B0C4355
:405340000080E03779C3414300A0D8855734764300C84E676DC1AB43003D9160E458E143408CB5781DAF154450EFE2D6E41A4B4492D54D06CFF08044F64AE1C7022DB5447F
:40538000B49DD9794378EA440080E03779C34143176E05B5B5B89346F5F93FE9034F384D321D30F94877825A3CBF737FDD4F157505000000190000007D000000232D302B9C
:4053C0002000686C4C0065666745464700000000F03D0000DE3C0000C43D0000CA3C0000C43D0000CE3D0000C43D0000CA3C0000DE3C0000DE3C0000CE3D0000CA3C0000C3
:40540000D43C0000D43C0000D43C000036400000844600006246000062460000564600004A4500004A4500004A460000564600004A4500004A4600004A450000564600007C
:405440004E4500004E4500004E45000064480000F8B5C046F8BC08BC9E4670478902000035040000F8B5C046F8BC08BC9E4670476102000088540000C8000020C000000090
:40548000680000000000000000000000F0010020006CDC0280BB0000300000000000C05D01000000F0000000040404000000000000000000000000000000000000000000A4
:4054C00000000000000000000000000074520000000000000000000000000000000000000000000000000000000000000000000000000000000000000000000000000000E6
:40550000000000000000000000000000EC000020BD520000C1530000C1530000C1530000C1530000C1530000C1530000C1530000C1530000C1530000FFFFFFFFFFFFFFFFA4
:40554000FFFFFFFFFFFF0000000000000000000000000000000000000000000000000000000000000000000000000000000000000000000000000000000000000000000031
:4055800000000000000000000000000000000000000000000000000000000000000000000000000000000000000000000000000000000000000000000000000000000000EB
:4055C00000000000000000000000000000000000000000000000000000000000000000000000000000000000000000000000000000000000000000000000000000000000AB
:40560000000000000000000000000000000000000000000000000000000000000000000000000000000000000000000000000000000000000000000000000000000000006A
:40564000000000000000000000000000000000000000000000000000000000000000000000000000000000000000000000000000000000000000000000000000000000002A
:020000040001F9
:0200000490303A
:02000000EC6FA3
:0200000490402A
:4000000000000000000000000000000000000000000000000000000000000000000000000000000000000000000000000000000000000000000000000000000000000000C0
:400040000000000000000000000000000000000000000000000000000000000000000000000000000000000000000000000000000000000000000000000000000000000080
:0200000490501A
:0C00000000020E06119E00010E21FE0DF4
:0200000490600A
:0100000001FE
:00000001FF